:100000000C942A000C9409010C9413010C944700E1
:100010000C9416050C9447000C9447000C94B20401
:100020000C9447000C9447000C944F040C94470028
:100030000C9447000C9447000C9447000C94470024
:100040000C9447000C9447000C9447000C94470014
:100050000C94470011241FBECFE5D8E0DEBFCDBF12
:1000600010E0A0E6B0E0E2E9FEE002C005900D92EB
:10007000A238B107D9F720E0A2E8B0E001C01D9294
:10008000A63AB207E1F70E9449000C9447070C9486
:100090000000CF93DF9300D000D01F92CDB7DEB722
:1000A00041E063E081E00E94890240E066E083E095
:1000B0000E94890243E068E670E080E00E946B03E2
:1000C00080E00E94C70360E880E00E94B90343E03B
:1000D00060E070E081E00E946B03BE016E5F7F4FC5
:1000E000CE0101960E94D9032FEF83ED90E32150BA
:1000F00080409040E1F700C000006A817B818C81E4
:100100009D810E941B069B01AC0160E070E080E8CD
:100110009FE30E947A0520E034E244E759E40E941C
:10012000A9064B015C010E9464010E941D020E940D
:100130001D0280E690E00E94ED016A817B818C8146
:100140009D810E94000287E690E00E94ED018BE60F
:1001500090E00E94ED01698170E080E090E00E94F3
:10016000000285E20E94A60184E790E00E94ED0172
:10017000C501B4010E94EC050E9400028EE790E0E8
:100180000E94ED010E94210289819DEC899FC12C72
:100190001124C694C694C694D12C8AE090E07C01C8
:1001A000EC18FD0800E029C08FE50E94A6012FEFA2
:1001B00084E39CE0215080409040E1F700C00000C3
:1001C0001F5F01C010E0812F90E08E159F0560F346
:1001D00010E00DC08DE20E94A6012FEF84E39CE0A9
:1001E000215080409040E1F700C000001F5F812F48
:1001F00090E08C159D0570F30F5F043018F32FEF1E
:100200008EE994E2215080409040E1F700C0000068
:100210008ECF1F920F920FB60F9211240F900FBE28
:100220000F901F9018951F920F920FB60F921124E6
:100230000F900FBE0F901F901895CF93C82F40E0DE
:1002400060E082E00E94FA0240E061E082E00E9409
:10025000FA0240E062E082E00E94FA028BB39C2F37
:10026000907F8F70892B8BBB41E062E082E00E941F
:10027000FA028FE99FE00197F1F700C0000040E02B
:1002800062E082E00E94FA0220E1C29FC0011124D4
:100290009BB39F70892B8BBB41E062E082E00E94A0
:1002A000FA028FE99FE00197F1F700C0000040E0FB
:1002B00062E082E00E94FA028FE19EE40197F1F78A
:1002C00000C00000CF91089541E060E082E00E940C
:1002D000890241E061E082E00E94890241E062E03F
:1002E00082E00E94890241E064E080E00E9489028D
:1002F00041E065E080E00E94890241E066E080E044
:100300000E94890241E067E080E00E9489028FE359
:100310009FE10197F1F700C0000083E30E941D01F7
:1003200082E30E941D0188E20E941D0181E00E947B
:100330001D018CE00E941D0186E00E941D018FE1DD
:100340009EE40197F1F700C000000895CF93C82FF5
:1003500041E060E082E00E94FA0240E061E082E079
:100360000E94FA0240E062E082E00E94FA028BB34F
:100370009C2F907F8F70892B8BBB41E062E082E0E5
:100380000E94FA028FE99FE00197F1F700C0000098
:1003900040E062E082E00E94FA0220E1C29FC001D8
:1003A00011249BB39F70892B8BBB41E062E082E0FC
:1003B0000E94FA028FE99FE00197F1F700C0000068
:1003C00040E062E082E00E94FA028FE19EE4019741
:1003D000F1F700C00000CF910895CF93DF93EC01B7
:1003E00009C00E94A6018FE39CE90197F1F700C0C4
:1003F0000000219688818111F4CFDF91CF9108957B
:10040000CF93DF93CDB7DEB72A970FB6F894DEBF50
:100410000FBECDBFAB01BC01CE0101960E942502EB
:10042000CE0101960E94ED012A960FB6F894DEBF28
:100430000FBECDBFDF91CF91089581E00E941D01D5
:10044000089580EC0E941D0108956F927F928F9213
:100450009F92AF92BF92CF92DF92EF92FF920F9353
:100460001F93CF93DF93EC01142F052F762E672E69
:10047000242F352F462F572FC12CD12C76010DC09C
:100480008FEFC81AD80AE80AF80ACA01B9012AE0A7
:1004900030E040E050E00E9416072115310541058B
:1004A000510571F7812C912C54011BC0612F702FC5
:1004B000872D962D2AE030E040E050E00E9416079C
:1004C000122F032F742E652EF601E819F9093197C2
:1004D000EC0FFD1F605D60838FEF881A980AA80AF1
:1004E000B80A8C149D04AE04BF0400F3FE01EC0DA9
:1004F000FD1D1082DF91CF911F910F91FF90EF9022
:10050000DF90CF90BF90AF909F908F907F906F9033
:100510000895442319F04130C9F10895813091F0D4
:1005200028F08230D9F0833029F108952AB381E090
:1005300090E002C0880F991F6A95E2F780958223A8
:100540008ABB089527B381E090E002C0880F991F0D
:100550006A95E2F78095822387BB089524B381E0F2
:1005600090E002C0880F991F6A95E2F78095822378
:1005700084BB089521B381E090E002C0880F991FE9
:100580006A95E2F78095822381BB0895813089F0D6
:1005900028F08230C9F0833011F108952AB381E048
:1005A00090E002C0880F991F6A95E2F7822B8ABB00
:1005B000089527B381E090E002C0880F991F6A95E3
:1005C000E2F7822B87BB089524B381E090E002C05C
:1005D000880F991F6A95E2F7822B84BB089521B397
:1005E00081E090E002C0880F991F6A95E2F7822BA4
:1005F00081BB0895442319F04130C9F10895813039
:1006000091F028F08230D9F0833029F108952BB38E
:1006100081E090E002C0880F991F6A95E2F780950B
:1006200082238BBB089528B381E090E002C0880F3D
:10063000991F6A95E2F78095822388BB089525B3B8
:1006400081E090E002C0880F991F6A95E2F78095DB
:10065000822385BB089522B381E090E002C0880F19
:10066000991F6A95E2F78095822382BB08958130B5
:1006700089F028F08230C9F0833011F108952BB34E
:1006800081E090E002C0880F991F6A95E2F7822B03
:100690008BBB089528B381E090E002C0880F991FBA
:1006A0006A95E2F7822B88BB089525B381E090E03C
:1006B00002C0880F991F6A95E2F7822B85BB0895C7
:1006C00022B381E090E002C0880F991F6A95E2F79B
:1006D000822B82BB08956836710529F4433318F0E4
:1006E000425360E670E0813041F018F0823059F0FA
:1006F000089563BF4093A500089577277FBD6EBD21
:100700004093A400089565BD4093A30008958130EF
:1007100059F018F0823091F0089512BE9091A50022
:1007200083B7892B83BF08951DBC1CBC2091A400F6
:100730008EB59FB5822B9FBD8EBD089514BC909140
:10074000A30085B5892B85BD0895813041F018F04F
:10075000823059F0089582B7887F82BF08958CB5A2
:100760009DB5887F9DBD8CBD089584B5887F84BD6F
:100770000895813031F018F0823039F008956CBF5F
:10078000089570E07BBD6ABD089563BD0895813012
:1007900041F018F0823049F0089580E00E9487030C
:1007A000089581E00E948703089582E00E948703F4
:1007B00008958F929F92AF92BF92EF92FF920F9304
:1007C0001F93CF93DF9300D000D000D0CDB7DEB71A
:1007D0007C018B01FE01319686E0DF011D928A9536
:1007E000E9F78EB59FB580649FBD8EBD81E00E9404
:1007F000870380E01BC008B605FEFDCFE82FF0E0C0
:1008000026B537B5EE0FFF1F41E050E04C0F5D1FDE
:10081000E40FF51F3183208398B7906298BF2EB5FF
:100820003FB550E425273FBD2EBD8F5F833018F3C1
:1008300081E00E94A5032B813C8189819A81281B3C
:10084000390B8D809E80881A990AA4E6B0E00E9438
:100850003807A12CB12CA50194010E941607D701DD
:100860002C9360E970ED83E090E0A50194010E9473
:100870001607F801208331834283538326960FB6EF
:10088000F894DEBF0FBECDBFDF91CF911F910F91C6
:10089000FF90EF90BF90AF909F908F9008951F9220
:1008A0000F920FB60F9211242F933F934F935F93A4
:1008B0006F937F938F939F93AF93BF93EF93FF9328
:1008C00080918A0090918B00A0918C00B0918D0056
:1008D0000196A11DB11D80938A0090938B00A09377
:1008E0008C00B0938D0040919F005091A0006091CA
:1008F000A1007091A20084179507A607B70709F514
:10090000E0919500F09196003097D9F080919F008A
:100910009091A000A091A100B091A200892B8A2BF8
:100920008B2B79F4099510928A0010928B0010920B
:100930008C0010928D0080919000811102C00E9465
:10094000A503FF91EF91BF91AF919F918F917F91FF
:100950006F915F914F913F912F910F900FBE0F902C
:100960001F9018951F920F920FB60F9211242F937C
:100970003F934F935F936F937F938F939F93AF9327
:10098000BF93EF93FF938091860090918700A09191
:100990008800B09189000196A11DB11D8093860049
:1009A00090938700A0938800B093890040919B00AA
:1009B00050919C0060919D0070919E008417950756
:1009C000A607B70711F5E0919300F09194003097D6
:1009D000E1F080919B0090919C00A0919D00B091CE
:1009E0009E00892B8A2B8B2B81F40995109286000F
:1009F00010928700109288001092890080918F00D9
:100A0000811103C081E00E94A503FF91EF91BF9186
:100A1000AF919F918F917F916F915F914F913F9196
:100A20002F910F900FBE0F901F9018951F920F924D
:100A30000FB60F9211242F933F934F935F936F93B1
:100A40007F938F939F93AF93BF93EF93FF93809187
:100A5000820090918300A0918400B091850001965E
:100A6000A11DB11D8093820090938300A093840008
:100A7000B093850040919700509198006091990043
:100A800070919A0084179507A607B70711F5E091B2
:100A90009100F09192003097E1F080919700909151
:100AA0009800A0919900B0919A00892B8A2B8B2BEA
:100AB00081F40995109282001092830010928400B4
:100AC0001092850080918E00811103C082E00E9407
:100AD000A503FF91EF91BF91AF919F918F917F916E
:100AE0006F915F914F913F912F910F900FBE0F909B
:100AF0001F9018950E948E050C946F060E94680640
:100B000058F00E94610640F029F45F3F29F00C94F0
:100B1000580651110C94A3060C945E060E948006A0
:100B200068F39923B1F3552391F3951B550BBB271C
:100B3000AA2762177307840738F09F5F5F4F220F61
:100B4000331F441FAA1FA9F335D00E2E3AF0E0E858
:100B500032D091505040E695001CCAF72BD0FE2FA2
:100B600029D0660F771F881FBB1F26173707480736
:100B7000AB07B0E809F0BB0B802DBF01FF279358EE
:100B80005F4F3AF09E3F510578F00C9458060C9454
:100B9000A3065F3FE4F3983ED4F386957795679577
:100BA000B795F7959F5FC9F7880F911D9695879523
:100BB00097F90895E1E0660F771F881FBB1F621742
:100BC00073078407BA0720F0621B730B840BBA0B00
:100BD000EE1F88F7E09508950E94880688F09F57D9
:100BE00098F0B92F9927B751B0F0E1F0660F771F51
:100BF000881F991F1AF0BA95C9F714C0B13091F047
:100C00000E94A206B1E008950C94A206672F782FE7
:100C10008827B85F39F0B93FCCF38695779567950B
:100C2000B395D9F73EF490958095709561957F4F77
:100C30008F4F9F4F0895E89409C097FB3EF490951D
:100C40008095709561957F4F8F4F9F4F9923A9F0A5
:100C5000F92F96E9BB279395F69587957795679534
:100C6000B795F111F8CFFAF4BB0F11F460FF1BC078
:100C70006F5F7F4F8F4F9F4F16C0882311F096E90B
:100C800011C0772321F09EE8872F762F05C06623B9
:100C900071F096E8862F70E060E02AF09A95660F72
:100CA000771F881FDAF7880F9695879597F908952B
:100CB00097F99F6780E870E060E008959FEF80EC0F
:100CC000089500240A9416161706180609060895B2
:100CD00000240A9412161306140605060895092E18
:100CE0000394000C11F4882352F0BB0F40F4BF2B87
:100CF00011F460FF04C06F5F7F4F8F4F9F4F0895C7
:100D000057FD9058440F551F59F05F3F71F04795BC
:100D1000880F97FB991F61F09F3F79F087950895A1
:100D2000121613061406551FF2CF4695F1DF08C0C0
:100D3000161617061806991FF1CF869571056105DD
:100D400008940895E894BB2766277727CB0197F985
:100D500008950E94BC060C946F060E94610638F04C
:100D60000E94680620F0952311F00C9458060C940C
:100D70005E0611240C94A3060E94800670F3959FD2
:100D8000C1F3950F50E0551F629FF001729FBB2782
:100D9000F00DB11D639FAA27F00DB11DAA1F649F1E
:100DA0006627B00DA11D661F829F2227B00DA11DD1
:100DB000621F739FB00DA11D621F839FA00D611D57
:100DC000221F749F3327A00D611D231F849F600D78
:100DD000211D822F762F6A2F11249F5750409AF0A1
:100DE000F1F088234AF0EE0FFF1FBB1F661F771F2D
:100DF000881F91505040A9F79E3F510580F00C94F8
:100E000058060C94A3065F3FE4F3983ED4F386950E
:100E100077956795B795F795E7959F5FC1F7FE2B97
:100E2000880F911D9695879597F90895A1E21A2E3E
:100E3000AA1BBB1BFD010DC0AA1FBB1FEE1FFF1F7E
:100E4000A217B307E407F50720F0A21BB30BE40BCE
:100E5000F50B661F771F881F991F1A9469F7609515
:100E60007095809590959B01AC01BD01CF010895CF
:100E7000A29FB001B39FC001A39F700D811D1124DB
:100E8000911DB29F700D811D1124911D0895F8943C
:020E9000FFCF92
:100E9200667265713D200020487A00092C647574E1
:100EA200793D2000092C74696D65203D2000757321
:020EB20000003E
:00000001FF
