S012000050574D5F4472617765722E737265635A
S11300000C942A000C940A010C9414010C944700DB
S11300100C9420050C9447000C9447000C94BC04E9
S11300200C9447000C9447000C9459040C9447001A
S11300300C9447000C9447000C9447000C94470020
S11300400C9447000C9447000C9447000C94470010
S11300500C94470011241FBECFE5D8E0DEBFCDBF0E
S113006010E0A0E6B0E0E6EAFEE002C005900D92E2
S1130070A238B107D9F720E0A2E8B0E001C01D9290
S1130080A73AB207E1F70E9449000C9451070C9477
S11300900000CF93DF9300D000D0CDB7DEB741E0AE
S11300A063E081E00E94930240E066E083E00E9406
S11300B0930243E068E670E080E00E94750380E00C
S11300C00E94D10360E880E00E94C30343E060E043
S11300D070E081E00E947503BE016F5F7F4F86EA86
S11300E090E00E94E3032FEF83ED90E321508040E2
S11300F09040E1F700C0000069817A818B819C8186
S11301000E9425069B01AC0160E070E080E89FE35B
S11301100E94840520E034E244E759E40E94B306D7
S11301204B015C010E9465010E9427020E94270284
S113013080E690E00E94EE0169817A818B819C8146
S11301400E94010287E690E00E94EE018BE690E0B7
S11301500E94EE016091A60070E080E090E00E94B1
S1130160010285E20E94A70184E790E00E94EE016B
S1130170C501B4010E94F6050E9401028EE790E0D9
S11301800E94EE010E942B028091A6009DEC899FA3
S1130190C12C1124C694C694C694D12C8AE090E054
S11301A07C01EC18FD0800E029C08FE50E94A7013E
S11301B02FEF84E39CE0215080409040E1F700C0A1
S11301C000001F5F01C010E0812F90E08E159F0595
S11301D060F310E00DC08DE20E94A7012FEF84E3CD
S11301E09CE0215080409040E1F700C000001F5F78
S11301F0812F90E08C159D0570F30F5F043018F388
S11302002FEF8EE994E2215080409040E1F700C046
S113021000008CCF1F920F920FB60F9211240F90F3
S11302200FBE0F901F9018951F920F920FB60F924A
S113023011240F900FBE0F901F901895CF93C82FC5
S113024040E060E082E00E94040340E061E082E07C
S11302500E94040340E062E082E00E9404038BB346
S11302609C2F907F8F70892B8BBB41E062E082E0F2
S11302700E9404038FE99FE00197F1F700C000009A
S113028040E062E082E00E94040320E1C29FC001DA
S113029011249BB39F70892B8BBB41E062E082E009
S11302A00E9404038FE99FE00197F1F700C000006A
S11302B040E062E082E00E9404038FE19EE4019743
S11302C0F1F700C00000CF91089541E060E082E0C2
S11302D00E94930241E061E082E00E94930241E0C7
S11302E062E082E00E94930241E064E080E00E94C8
S11302F0930241E065E080E00E94930241E066E001
S113030080E00E94930241E067E080E00E94930253
S11303108FE39FE10197F1F700C0000083E30E949F
S11303201E0182E30E941E0188E20E941E0181E0F8
S11303300E941E018CE00E941E0186E00E941E01A4
S11303408FE19EE40197F1F700C000000895CF9378
S1130350C82F41E060E082E00E94040340E061E0D5
S113036082E00E94040340E062E082E00E94040311
S11303708BB39C2F907F8F70892B8BBB41E062E005
S113038082E00E9404038FE99FE00197F1F700C027
S1130390000040E062E082E00E94040320E1C29F8A
S11303A0C00111249BB39F70892B8BBB41E062E099
S11303B082E00E9404038FE99FE00197F1F700C0F7
S11303C0000040E062E082E00E9404038FE19EE4CA
S11303D00197F1F700C00000CF910895CF93DF9308
S11303E0EC0109C00E94A7018FE39CE90197F1F792
S11303F000C00000219688818111F4CFDF91CF9154
S11304000895CF93DF93CDB7DEB72A970FB6F8944C
S1130410DEBF0FBECDBF611571058105910521F4C5
S113042080E30E94A7010AC0AB01BC01CE01019682
S11304300E942F02CE0101960E94EE012A960FB669
S1130440F894DEBF0FBECDBFDF91CF91089581E058
S11304500E941E01089580EC0E941E0108956F926F
S11304607F928F929F92AF92BF92CF92DF92EF9240
S1130470FF920F931F93CF93DF93EC01142F052F5B
S1130480762E672E242F352F462F572FC12CD12C93
S113049076010DC08FEFC81AD80AE80AF80ACA0113
S11304A0B9012AE030E040E050E00E942007211525
S11304B031054105510571F7812C912C54011BC064
S11304C0612F702F872D962D2AE030E040E050E018
S11304D00E942007122F032F742E652EF601E819AF
S11304E0F9093197EC0FFD1F605D60838FEF881A67
S11304F0980AA80AB80A8C149D04AE04BF0400F339
S1130500FE01EC0DFD1D1082DF91CF911F910F9123
S1130510FF90EF90DF90CF90BF90AF909F908F901F
S11305207F906F900895442319F04130C9F10895E4
S1130530813091F028F08230D9F0833029F1089588
S11305402AB381E090E002C0880F991F6A95E2F710
S1130550809582238ABB089527B381E090E002C08E
S1130560880F991F6A95E2F78095822387BB0895C7
S113057024B381E090E002C0880F991F6A95E2F7E6
S11305808095822384BB089521B381E090E002C06A
S1130590880F991F6A95E2F78095822381BB08959D
S11305A0813089F028F08230C9F0833011F1089548
S11305B02AB381E090E002C0880F991F6A95E2F7A0
S11305C0822B8ABB089527B381E090E002C0880F94
S11305D0991F6A95E2F7822B87BB089524B381E0C3
S11305E090E002C0880F991F6A95E2F7822B84BBC2
S11305F0089521B381E090E002C0880F991F6A95A5
S1130600E2F7822B81BB0895442319F04130C9F1EC
S11306100895813091F028F08230D9F0833029F1A7
S113062008952BB381E090E002C0880F991F6A956A
S1130630E2F7809582238BBB089528B381E090E094
S113064002C0880F991F6A95E2F78095822388BBC0
S1130650089525B381E090E002C0880F991F6A9540
S1130660E2F78095822385BB089522B381E090E070
S113067002C0880F991F6A95E2F78095822382BB96
S11306800895813089F028F08230C9F0833011F167
S113069008952BB381E090E002C0880F991F6A95FA
S11306A0E2F7822B8BBB089528B381E090E002C06F
S11306B0880F991F6A95E2F7822B88BB089525B3AA
S11306C081E090E002C0880F991F6A95E2F7822BBF
S11306D085BB089522B381E090E002C0880F991F82
S11306E06A95E2F7822B82BB08956836710529F476
S11306F0433318F0425360E670E0813041F018F063
S1130700823059F0089563BF4093A5000895772778
S11307107FBD6EBD4093A400089565BD4093A300C2
S11307200895813059F018F0823091F0089512BE86
S11307309091A50083B7892B83BF08951DBC1CBC71
S11307402091A4008EB59FB5822B9FBD8EBD0895C8
S113075014BC9091A30085B5892B85BD0895813083
S113076041F018F0823059F0089582B7887F82BF33
S113077008958CB59DB5887F9DBD8CBD089584B5C5
S1130780887F84BD0895813031F018F0823039F0CB
S113079008956CBF089570E07BBD6ABD089563BD84
S11307A00895813041F018F0823049F0089580E0D6
S11307B00E949103089581E00E949103089582E0CC
S11307C00E94910308958F929F92AF92BF92EF92ED
S11307D0FF920F931F93CF93DF9300D000D000D0EC
S11307E0CDB7DEB77C018B01FE01319686E0DF01D7
S11307F01D928A95E9F78EB59FB580649FBD8EBD25
S113080081E00E94910380E01BC008B605FEFDCF85
S1130810E82FF0E026B537B5EE0FFF1F41E050E0BA
S11308204C0F5D1FE40FF51F3183208398B790624E
S113083098BF2EB53FB550E425273FBD2EBD8F5F31
S1130840833018F381E00E94AF032B813C818981BE
S11308509A81281B390B8D809E80881A990AA4E6F8
S1130860B0E00E944207A12CB12CA50194010E9482
S11308702007D7012C9360E970ED83E090E0A50197
S113088094010E942007F80120833183428353831B
S113089026960FB6F894DEBF0FBECDBFDF91CF9181
S11308A01F910F91FF90EF90BF90AF909F908F900A
S11308B008951F920F920FB60F9211242F933F9316
S11308C04F935F936F937F938F939F93AF93BF9354
S11308D0EF93FF9380918A0090918B00A0918C00FC
S11308E0B0918D000196A11DB11D80938A00909353
S11308F08B00A0938C00B0938D0040919F00509189
S1130900A0006091A1007091A20084179507A6072A
S1130910B70709F5E0919500F09196003097D9F06A
S113092080919F009091A000A091A100B091A2009D
S1130930892B8A2B8B2B79F4099510928A001092BB
S11309408B0010928C0010928D0080919000811188
S113095002C00E94AF03FF91EF91BF91AF919F91AD
S11309608F917F916F915F914F913F912F910F9054
S11309700FBE0F901F9018951F920F920FB60F92F3
S113098011242F933F934F935F936F937F938F9390
S11309909F93AF93BF93EF93FF93809186009091C1
S11309A08700A0918800B09189000196A11DB11D16
S11309B08093860090938700A0938800B093890069
S11309C040919B0050919C0060919D0070919E000D
S11309D084179507A607B70711F5E0919300F091E6
S11309E094003097E1F080919B0090919C00A0913D
S11309F09D00B0919E00892B8A2B8B2B81F4099545
S1130A00109286001092870010928800109289003C
S1130A1080918F00811103C081E00E94AF03FF9198
S1130A20EF91BF91AF919F918F917F916F915F9162
S1130A304F913F912F910F900FBE0F901F901895DB
S1130A401F920F920FB60F9211242F933F934F933F
S1130A505F936F937F938F939F93AF93BF93EF9322
S1130A60FF938091820090918300A0918400B091C3
S1130A7085000196A11DB11D80938200909383008F
S1130A80A0938400B0938500409197005091980002
S1130A906091990070919A0084179507A607B7078B
S1130AA011F5E0919100F09192003097E1F080917E
S1130AB0970090919800A0919900B0919A00892B89
S1130AC08A2B8B2B81F4099510928200109283005B
S1130AD0109284001092850080918E00811103C0D1
S1130AE082E00E94AF03FF91EF91BF91AF919F917C
S1130AF08F917F916F915F914F913F912F910F90C3
S1130B000FBE0F901F9018950E9498050C947906BB
S1130B100E94720658F00E946B0640F029F45F3F71
S1130B2029F00C94620651110C94AD060C946806DD
S1130B300E948A0668F39923B1F3552391F3951B18
S1130B40550BBB27AA2762177307840738F09F5FEA
S1130B505F4F220F331F441FAA1FA9F335D00E2E57
S1130B603AF0E0E832D091505040E695001CCAF7C4
S1130B702BD0FE2F29D0660F771F881FBB1F261787
S1130B8037074807AB07B0E809F0BB0B802DBF015E
S1130B90FF2793585F4F3AF09E3F510578F00C942D
S1130BA062060C94AD065F3FE4F3983ED4F3869559
S1130BB077956795B795F7959F5FC9F7880F911D4E
S1130BC09695879597F90895E1E0660F771F881F3A
S1130BD0BB1F621773078407BA0720F0621B730BED
S1130BE0840BBA0BEE1F88F7E09508950E949206D5
S1130BF088F09F5798F0B92F9927B751B0F0E1F0DA
S1130C00660F771F881F991F1AF0BA95C9F714C089
S1130C10B13091F00E94AC06B1E008950C94AC069A
S1130C20672F782F8827B85F39F0B93FCCF38695C2
S1130C3077956795B395D9F73EF49095809570951F
S1130C4061957F4F8F4F9F4F0895E89409C097FB9C
S1130C503EF490958095709561957F4F8F4F9F4F8F
S1130C609923A9F0F92F96E9BB279395F6958795D3
S1130C7077956795B795F111F8CFFAF4BB0F11F496
S1130C8060FF1BC06F5F7F4F8F4F9F4F16C088233D
S1130C9011F096E911C0772321F09EE8872F762F73
S1130CA005C0662371F096E8862F70E060E02AF0B4
S1130CB09A95660F771F881FDAF7880F96958795A0
S1130CC097F9089597F99F6780E870E060E00895C8
S1130CD09FEF80EC089500240A9416161706180650
S1130CE00906089500240A9412161306140605062C
S1130CF00895092E0394000C11F4882352F0BB0FBD
S1130D0040F4BF2B11F460FF04C06F5F7F4F8F4F1F
S1130D109F4F089557FD9058440F551F59F05F3F5A
S1130D2071F04795880F97FB991F61F09F3F79F009
S1130D3087950895121613061406551FF2CF46958B
S1130D40F1DF08C0161617061806991FF1CF86950D
S1130D507105610508940895E894BB2766277727F1
S1130D60CB0197F908950E94C6060C9479060E9457
S1130D706B0638F00E94720620F0952311F00C9453
S1130D8062060C94680611240C94AD060E948A062F
S1130D9070F3959FC1F3950F50E0551F629FF001CA
S1130DA0729FBB27F00DB11D639FAA27F00DB11DE3
S1130DB0AA1F649F6627B00DA11D661F829F22276C
S1130DC0B00DA11D621F739FB00DA11D621F839FF3
S1130DD0A00D611D221F749F3327A00D611D231FC9
S1130DE0849F600D211D822F762F6A2F11249F5717
S1130DF050409AF0F1F088234AF0EE0FFF1FBB1F1A
S1130E00661F771F881F91505040A9F79E3F5105D8
S1130E1080F00C9462060C94AD065F3FE4F3983EB8
S1130E20D4F3869577956795B795F795E7959F5F82
S1130E30C1F7FE2B880F911D9695879597F9089514
S1130E40A1E21A2EAA1BBB1BFD010DC0AA1FBB1FCA
S1130E50EE1FFF1FA217B307E407F50720F0A21B3C
S1130E60B30BE40BF50B661F771F881F991F1A94A9
S1130E7069F760957095809590959B01AC01BD01D3
S1130E80CF010895A29FB001B39FC001A39F700D2D
S1130E90811D1124911DB29F700D811D1124911D7E
S1090EA00895F894FFCF51
S1130EA6667265713D200020487A00092C647574C9
S1130EB6793D2000092C74696D65203D2000757309
S1050EC6000026
S9030000FC
